{
  "contractName": "Election",
  "abi": [
    {
      "inputs": [],
      "payable": false,
      "stateMutability": "nonpayable",
      "type": "constructor"
    },
    {
      "anonymous": false,
      "inputs": [
        {
          "indexed": true,
          "internalType": "uint256",
          "name": "_candidateId",
          "type": "uint256"
        }
      ],
      "name": "votedEvent",
      "type": "event"
    },
    {
      "constant": true,
      "inputs": [
        {
          "internalType": "uint256",
          "name": "",
          "type": "uint256"
        }
      ],
      "name": "candidates",
      "outputs": [
        {
          "internalType": "uint256",
          "name": "id",
          "type": "uint256"
        },
        {
          "internalType": "string",
          "name": "name",
          "type": "string"
        },
        {
          "internalType": "string",
          "name": "party",
          "type": "string"
        },
        {
          "internalType": "uint256",
          "name": "voteCount",
          "type": "uint256"
        }
      ],
      "payable": false,
      "stateMutability": "view",
      "type": "function"
    },
    {
      "constant": true,
      "inputs": [],
      "name": "candidatesCount",
      "outputs": [
        {
          "internalType": "uint256",
          "name": "",
          "type": "uint256"
        }
      ],
      "payable": false,
      "stateMutability": "view",
      "type": "function"
    },
    {
      "constant": true,
      "inputs": [
        {
          "internalType": "address",
          "name": "",
          "type": "address"
        }
      ],
      "name": "voters",
      "outputs": [
        {
          "internalType": "bool",
          "name": "",
          "type": "bool"
        }
      ],
      "payable": false,
      "stateMutability": "view",
      "type": "function"
    },
    {
      "constant": false,
      "inputs": [
        {
          "internalType": "uint256",
          "name": "_candidateId",
          "type": "uint256"
        }
      ],
      "name": "vote",
      "outputs": [],
      "payable": false,
      "stateMutability": "nonpayable",
      "type": "function"
    }
  ],
  "bytecode": "0x608060405234801561001057600080fd5b5061008b6040518060400160405280600e81526020017f4861727368696c2044204d6f64690000000000000000000000000000000000008152506040518060400160405280601181526020017f49494954204a616e6174612050617274790000000000000000000000000000008152506102f260201b60201c565b6101056040518060400160405280600981526020017f4b474220507574696e00000000000000000000000000000000000000000000008152506040518060400160405280600d81526020017f556e6974656420527573736961000000000000000000000000000000000000008152506102f260201b60201c565b61017f6040518060400160405280600881526020017f4a6f65204d616d610000000000000000000000000000000000000000000000008152506040518060400160405280601081526020017f44656d6f637261746963205061727479000000000000000000000000000000008152506102f260201b60201c565b6101f96040518060400160405280600d81526020017f4a757374696e20426965626572000000000000000000000000000000000000008152506040518060400160405280601981526020017f4c69626572616c205061727479206f66204b616e6e65646461000000000000008152506102f260201b60201c565b6102736040518060400160405280600c81526020017f53687269204a696e70696e6700000000000000000000000000000000000000008152506040518060400160405280601781526020017f4368696e65736520436f6d6d756e6973742050617274790000000000000000008152506102f260201b60201c565b6102ed6040518060400160405280600481526020017f494f5441000000000000000000000000000000000000000000000000000000008152506040518060400160405280600981526020017f496d6167696e61727900000000000000000000000000000000000000000000008152506102f260201b60201c565b610437565b600260008154809291906001019190505550604051806080016040528060025481526020018381526020018281526020016000815250600160006002548152602001908152602001600020600082015181600001556020820151816001019080519060200190610363929190610392565b506040820151816002019080519060200190610380929190610392565b50606082015181600301559050505050565b828054600181600116156101000203166002900490600052602060002090601f016020900481019282601f106103d357805160ff1916838001178555610401565b82800160010185558215610401579182015b828111156104005782518255916020019190600101906103e5565b5b50905061040e9190610412565b5090565b61043491905b80821115610430576000816000905550600101610418565b5090565b90565b6104f3806104466000396000f3fe608060405234801561001057600080fd5b506004361061004c5760003560e01c80630121b93f146100515780632d35a8a21461007f5780633477ee2e1461009d578063a3ec138d146101be575b600080fd5b61007d6004803603602081101561006757600080fd5b810190808035906020019092919050505061021a565b005b610087610338565b6040518082815260200191505060405180910390f35b6100c9600480360360208110156100b357600080fd5b810190808035906020019092919050505061033e565b604051808581526020018060200180602001848152602001838103835286818151815260200191508051906020019080838360005b838110156101195780820151818401526020810190506100fe565b50505050905090810190601f1680156101465780820380516001836020036101000a031916815260200191505b50838103825285818151815260200191508051906020019080838360005b8381101561017f578082015181840152602081019050610164565b50505050905090810190601f1680156101ac5780820380516001836020036101000a031916815260200191505b50965050505050505060405180910390f35b610200600480360360208110156101d457600080fd5b81019080803573ffffffffffffffffffffffffffffffffffffffff16906020019092919050505061049e565b604051808215151515815260200191505060405180910390f35b6000803373ffffffffffffffffffffffffffffffffffffffff1673ffffffffffffffffffffffffffffffffffffffff16815260200190815260200160002060009054906101000a900460ff161561027057600080fd5b60008111801561028257506002548111155b61028b57600080fd5b60016000803373ffffffffffffffffffffffffffffffffffffffff1673ffffffffffffffffffffffffffffffffffffffff16815260200190815260200160002060006101000a81548160ff0219169083151502179055506001600082815260200190815260200160002060030160008154809291906001019190505550807ffff3c900d938d21d0990d786e819f29b8d05c1ef587b462b939609625b684b1660405160405180910390a250565b60025481565b6001602052806000526040600020600091509050806000015490806001018054600181600116156101000203166002900480601f0160208091040260200160405190810160405280929190818152602001828054600181600116156101000203166002900480156103f05780601f106103c5576101008083540402835291602001916103f0565b820191906000526020600020905b8154815290600101906020018083116103d357829003601f168201915b505050505090806002018054600181600116156101000203166002900480601f01602080910402602001604051908101604052809291908181526020018280546001816001161561010002031660029004801561048e5780601f106104635761010080835404028352916020019161048e565b820191906000526020600020905b81548152906001019060200180831161047157829003601f168201915b5050505050908060030154905084565b60006020528060005260406000206000915054906101000a900460ff168156fea265627a7a72315820e283130ea93c9c8cb25feff680d3741dee28e80099760c7c26a7abc38a1021b764736f6c63430005100032",
  "source": "// SPDX-License-Identifier: MIT\npragma solidity >=0.5.16;\n\ncontract Election {\n    struct Candidate {\n        uint id;\n        string name;\n        string party;\n        uint voteCount;\n    }\n    mapping(address => bool) public voters;\n    mapping(uint => Candidate) public candidates;\n    uint public candidatesCount;\n    event votedEvent (\n        uint indexed _candidateId\n    );\n    constructor () public {\n        addCandidate(\"Harshil D Modi\",\"IIIT Janata Party\");\n        addCandidate(\"KGB Putin\",\"United Russia\");\n        addCandidate(\"Joe Mama\",\"Democratic Party\");\n        addCandidate(\"Justin Bieber\",\"Liberal Party of Kannedda\");\n        addCandidate(\"Shri Jinping\",\"Chinese Communist Party\");\n        addCandidate(\"IOTA\",\"Imaginary\");\n    }\n    function addCandidate (string memory name,string memory party) private {\n        candidatesCount ++;\n        candidates[candidatesCount] = Candidate(candidatesCount, name,party, 0);\n    }\n    function vote (uint _candidateId) public {\n        require(!voters[msg.sender]);\n        require(_candidateId > 0 && _candidateId <= candidatesCount);\n        voters[msg.sender] = true;\n        candidates[_candidateId].voteCount ++;\n        emit votedEvent(_candidateId);\n    }\n}\n",
  "sourcePath": "C:\\Users\\Ishpreet\\Desktop\\College\\Fifth-Sem\\BTP\\VoteChain-main\\contracts\\Election.sol",
  "compiler": {
    "name": "solc",
    "version": "0.5.16+commit.9c3226ce.Emscripten.clang"
  },
  "schemaVersion": "3.4.11",
  "updatedAt": "2022-12-15T09:46:37.426Z",
  "networkType": "ethereum",
  "devdoc": {
    "methods": {}
  },
  "userdoc": {
    "methods": {}
  }
}